:020000040000FA
:040800008431142CFF
:100808007E1484314E01961E0A2C0B2C122C8C1E41
:100818000E2C0F2C122C84318E2484317E1009006A
:1008280040018431172C7E1040018431532C400143
:10083800980199019A013B309200F0309300FF3003
:100848009400FF307E01CE00F030C3003330B80092
:10085800C401B901CF01BA01C501D0013730BB00CD
:10086800F030C600FF30D1003F30BC00F030C70088
:10087800FF30D20008004A304B019F00F3309D0042
:100888009C014E018C1296169C30F2000430F30045
:100898008431942484318F304B019E0008008431C8
:1008A800622484316F30F2000430F30084319424E0
:1008B80084318B170B175F2C8431142C84311B2443
:1008C8008431843188248431843199248431843179
:1008D8003F248431080003104001181D0314031835
:1008E800762C792C400118157B2C40011811080032
:1008F800700871040319812C822C872C71088A00D6
:1009080070080A00843108005101910105309300F4
:10091800920108004E018C1284317C248431080035
:100928007308F1007208F000080050018C010800FB
:020938000800B5
:020000040001F9
:04000E00CD3FE73FBC
:04001400FF3FFF3F6C
:00000001FF
