:020000040000FA
:04000000803114280F
:100008007E1480314E01961E0A280B2812288C1E59
:100018000E280F28122880318D2080317E1009008B
:10002800803116287E104001803152284001980105
:1000380099019A013B309200F0309300FF30940010
:10004800FF307E01CE00F030C3003330B800C40169
:10005800B901CF01BA01C501D0013730BB00F0307A
:10006800C600FF30D1003F30BC00F030C700FF3081
:10007800D20008004A304B019F00F3309D009C01DC
:100088004E018C1296169B30F2000030F30080313E
:10009800932080318F304B019E0008008031612011
:1000A80080316E30F2000030F300803193208031CF
:1000B8008B170B175E288031142880311A20803165
:1000C80080318720803180319820803180313E20F6
:1000D8008031080003104001181D03140318752807
:1000E8007828400118157A2840011811080070086E
:1000F8007104031980288128862871088A007008ED
:100108000A008031080051019101053093009201E5
:1001180008004E018C1280317B2080310800730862
:10012800F1007208F000080050018C010800080076
:020000040001F9
:04000E00CD3FE73FBC
:04001400FF3FFF3F6C
:00000001FF
