:020000040000FA
:04000000803106281D
:100008008431042C80310828203084000030850099
:10001800093083313A238031A030840000308500D4
:10002800493083313A23803140018331402B4201EA
:100038009E1C1F2820281B2883313223803142012F
:100048001F142D289F1F29282A282D281F109F1389
:100058001F141F1830283128262883310F23803198
:10006800FD010930FA007A08FC00692883310F2362
:100078008031FA007A08FB007B08FA007D08A03E70
:10008800860087017A0881000130FA007A08FD07A6
:1000980004307D06031D5128522869280230410189
:1000A8002006031958285928652805302006031901
:1000B8005E285F28652807302006031D6428652808
:1000C80069282108FA007A08FC077C087D02031CCD
:1000D8006E286F283A2880318F208031FA007A08FC
:1000E800FC00553083311F238031FD0187287D08AE
:1000F800A03E86008701010883311F23803101302B
:10010800FA007A08FD077C087D02031C8C288D28DC
:100118007B281B28080041012308F70077084001C5
:10012800F00041012408F70077084001F100D228C7
:1001380081314E218031F7007708F900EF288031AE
:10014800F1208031F7007708F900EF288131F62196
:100158008031F7007708F900EF28823139228031A1
:10016800F7007708F900EF288131A3218031F700E3
:100178007708F900EF28A901A90A4001A401A40AF7
:100188000A30F7007708F900EF28FF30F700770802
:10019800A9000A30F7007708F900EF284101200884
:1001A800F700F8017808003A0319DB28C92877080E
:1001B800003A03199C28023A0319A328013A0319A3
:1001C800AA28053A0319B1280E3A0319B828013AA2
:1001D8000319BF28C92879080800410125085001DA
:1001E8009A004101260850019B00A4309E00F401AA
:1001F800F5013C291F3050011A05F2001F30720624
:10020800031907290829192941012108FE3EF2008E
:10021800FF30223DF30075087306031D1529740885
:100228007206031D182919291B2950019E127408EA
:10023800A93E86008701010850019C007408AA3E67
:100248008600870101089D00833129238031013010
:10025800F200720850019A07031D332934293829FE
:100268000130F20072089B070230F4070030F53DB8
:10027800410122087502031D432921087402031C49
:1002880046294729FE28A901A90A4001F001F101E0
:100298000A3008000830F20072084101A900AA01DA
:1002A800AB01AC01AC0AAD01AE01063050019A00B9
:1002B8009B011E171E140000000050011C08F200CC
:1002C80072084101AF0050011D08F2007208410197
:1002D800B000B101B2012030F2007208B300203042
:1002E800F2007208B40050019A019B011E170C30ED
:1002F800F2007208F3001E140000000050011C08F0
:10030800F2007308A93E8600870172088100013057
:10031800F20072089A07031D922993299729013040
:10032800F20072089B070130F2007208F3071030E0
:100338007302031CA029A1297F2919300800410153
:10034800250850019A004101260850019B00803081
:100358009E004001A201A301F501F601DD2950012B
:100368001E140000000050011C08F200F30172087E
:100378004001A2077308A33D50011D08F200F301D4
:100388007208F300F20172084001A2077308A33D46
:100398000130F200720850019A07031DD429D529AB
:1003A800D9290130F20072089B070230F5070030A6
:1003B800F63D410122087602031DE4292108750251
:1003C800031CE729E829B32940012208F200720832
:1003D8004101A90040012308F20072084101AA0066
:1003E8000B3008004101250850019A0041012608F8
:1003F80050019B00F301F401282A7F3050011B05AE
:10040800F20010307202031C0A2A0B2A122AFE304C
:10041800F20072084101A9000A30382A94309E007F
:100428008331292381312030F200720850019A0764
:10043800031D1F2A202A242A0130F20072089B0774
:100448000130F3070030F43D410122087402031D16
:100458002F2A21087302031C322A332A012AA901F0
:10046800A90AA301A4010A30080041012508500186
:100478009A004101260850019B0040309E00F4017B
:10048800622A50011E140000000050011C08F200EE
:100498007408A93E86008701720881001D08F200D1
:1004A8007408AA3E86008701720881000130F200B4
:1004B80072089A070230F2007208F4077408F20012
:1004C800F301410122087302031D6C2A21087202FC
:1004D800031C6F2A702A452A0D3008004001980134
:1004E80099019A013F309200F0309300FE30940059
:1004F800F8307E01CE00F030C3003330B800C401BC
:10050800B9010430CF00BA01C501D0013730BB00B2
:10051800F030C600FF30D1003F30BC00F030C700DB
:10052800FF30D2000530A00011307D01CB0008005B
:10053800F30100000130F2007208F307730A031D8B
:10054800A62AA72A9D2A40010E19AB2AAC2AAE2A50
:100558000130C52A50019A0104309B0080309E006A
:100568001E14000000003F3050011D06031DBD2A67
:10057800BE2AC42A1C0A031DC22AC32AC42AAC2ABA
:1005880000300800083042019F0090309D00243060
:100598009E0040309B0003309C000030F200003089
:1005A800F3008331522382310030F2000030F3002F
:1005B80083314C2382310030F2000030F300833164
:1005C800582382314001A80108004001F001F101DF
:1005D80082319C228231013A031DF32AF42AF72A38
:1005E80080311B2082311F307F01ED0040018801DE
:1005F8008431002C080082317222823183314623F3
:10060800823183315E2382318231C6228231823146
:10061800E922823108004E010D1E132B142B0F2BDB
:100628004001A80142019D1C1A2B1B2B1D2B1D12DA
:100638001D1619080800F2004E018D1D242B252BCC
:10064800202B720842019A000800640070089F007D
:1006580071089F009E140000000008004001240358
:10066800031D372B382B392B01000800640080014B
:100678000131890B3B2B00348231FF228331432B1C
:10068800803106285101910105309300920108003C
:1006980073084001AC007208AB0008007308400101
:1006A800AE007208AD00080073084001AA00720885
:0A06B800A900080050018C010800A1
:00000001FF
